:1000000099C0A8C0A7C0A6C0A5C0A4C0A3C0A2C0D4
:10001000A1C0A0C09FC09EC09DC09CC09BC09AC0F4
:1000200099C098C097C00D0A0D0A2D2D2D2D2D2D8C
:100030002D2D2D0D0A56414E206D6F6E696E6F721B
:10004000287265763129206D656E753A0D0A642037
:100050002D2064756D702056414E206275730D0A17
:1000600032202D2073656E6420277377697463686E
:1000700020746F20696E7465726E616C2043442732
:1000800020636D640D0A33202D2073656E64202774
:1000900073776974636820746F20726164696F2775
:1000A00020636D640D0A34202D2073656E64202753
:1000B00073776974636820746F2063642063686178
:1000C0006E6765722720636D640D0A6D202D206DAB
:1000D0006F6E69746F72206C696E652077697468E1
:1000E0002074696D65720D0A70202D2055534152A0
:1000F0005420706572666F726D616E636520746501
:100100007374202877696C6C20666C6F6F6420773D
:10011000697468206368617273290D0A72202D204A
:100120007265736574206465766963650D0A0D0AEE
:100130003E20000011241FBECFE5D4E0DEBFCDBFBE
:1001400013E0A0E6B0E001C01D92A236B107E1F7CE
:1001500014D1D9C455CF20EA3FE004C0F90131974A
:10016000F1F701970097D1F7089586E880BD10BC9C
:1001700088E089B988E18AB908955D9BFECF8CB982
:1001800008955F9BFECF8CB108955D9BFECF8DE0FF
:100190008CB95D9BFECF8AE08CB908958BB1881F26
:1001A0008827881F08958F7385BB089584B38F6354
:1001B00084BB8FE385BB8CE291E020EA3FE0F9014C
:1001C0003197F1F70197D9F715BA089555245A9444
:1001D0008EEF482E089550948EEF48260895FC0126
:1001E000DA0155245A949EEF492E4FE03DE914C0A0
:1001F0009081242D852D0AC097FD805887FF02C06D
:10020000842723278894441C551C990F9923A1F710
:10021000422E582E31966150662351F7952D9095B8
:10022000592E8EEF48269C9311964C92089512BE3B
:1002300082E083BF089582B7089582BF089512BEF9
:1002400008951DBC1CBC81E08EBD08952CB53DB544
:10025000C901089581E087BB11BA089515BA8CE7EA
:1002600082BB8EE388BB0895882311F0C09A08955D
:10027000C0980895882369F05D9BFECF8CB96623F2
:1002800041F05D9BFECF6CB9442319F05D9BFECF1E
:100290004CB90895882371F05D9BFECF8CB966231D
:1002A00049F05D9BFECF6CB9442321F05D9BFECFEE
:1002B0004CB96BDF0895FF920F931F93162F042FF5
:1002C000F22E5D9BFECF8CB980E26DE240E2D2DF80
:1002D000812F602F4F2DCEDF58DF1F910F91FF90A0
:1002E00008958F708A3010F4805D0895895A0895BA
:1002F000982F92959F709A3010F4905D01C0995A92
:100300005D9BFECF9CB98F708A3010F4805D01C078
:10031000895A5D9BFECF8CB908951F93CF93DF93CD
:10032000C0E6D0E00FC019910AC08091600390919F
:100330006103C817D90729F08991DADF1150112319
:10034000A1F723DF8091600390916103C817D9075B
:1003500051F7DF91CF911F9108955F9903C080E01D
:1003600090E008955F9BFECF8CB190E0823709F05A
:1003700091E081E09827892F08956F927F928F9264
:100380009F92AF92BF92CF92DF92EF92FF920F9324
:100390001F93CF93DF93B2E07B2EA0E6CA2EA0E09E
:1003A000DA2EFFE0FF2E0DE946010894811C911C16
:1003B000EDE8EE2E7CE4B72E62E1A62E12BE73BEEF
:1003C00081E087BB11BAF2DE15BA8CE782BB8EE3FF
:1003D00088BB86E880BD10BC88E089B988E18AB90D
:1003E00053E0652E86E290E003C05D9BFECF2CB902
:1003F000FC01019624912223C1F75F9BFECF1CB123
:100400005D9BFECF1CB9C1DE143609F47FC01D36DA
:1004100009F4C0C2123379F4E0926000B092610036
:10042000A09262007092630089EC8093640080E681
:100430008093650020C0133371F4E0926000B092A5
:100440006100A092620021E02093630088EE809317
:1004500064002EE20EC0143339F5E0926000B092D1
:100460006100A09262006092630086ED8093640058
:100470002AE52093650080E690E066E0C9D287FD1A
:1004800002C021E401C02DE290E086FD02C061E4DB
:1004900001C06DE28F709070892B11F443E501C0AB
:1004A00045E4822FF7DE9ECF103761F510E05D9BAB
:1004B000FECF1F591CB911565D9BFECF1E591CB9AA
:1004C00012565D9BFECF1D591CB913565D9BFECF86
:1004D0001C591CB914565D9BFECF1B591CB91556EF
:1004E0005D9BFECF1A591CB916565D9BFECF19595C
:1004F0001CB917565D9BFECF18591CB946DE17561E
:100500001F70D5CF123709F459CF6CCFC09A12BEE5
:10051000D0926103C092600320DF882311F0FDDEDA
:1005200061CF12BE55245A944EEF442E80E003C092
:100530008F3F09F082B78799FBCF12BE863060F3F8
:1005400082B78F708930E1F782B78F708A30E1F718
:100550008799E2CF82B78F708930E1F782B78F70C9
:100560008A30E1F78799D8CF82B78F708930E1F769
:1005700082B78F708A30E1F78799CECF82B78F70BC
:100580008930E1F782B78F708A30E1F78799C4CF5D
:10059000332405C0879B03C082B7382E04C082B7BE
:1005A0008F708930B9F7332019F082B7831982BF71
:1005B00082B78F708A30E1F7879BAECF82B78F709A
:1005C0008930E1F782B78F708A30E1F7879BA4CF3B
:1005D00082B78F708930E1F782B78F708A30E1F788
:1005E000879B9ACF82B78F708930E1F782B78F707F
:1005F0008A30E1F7879B90CF332405C0879903C0E9
:1006000082B7382E04C082B78F708930B9F7332093
:1006100019F082B7831982BF82B78F708A30E1F7F1
:1006200087997ACF332405C0879B03C082B7382EC1
:1006300004C082B78F708930B9F7332019F082B7C0
:10064000831982BF82B78F708A30E1F7879B64CFAE
:10065000A0916003B09161031196B0936103A093E0
:100660006003119720E0222482B78F708930E1F770
:1006700082B78F708A30E1F7879B03C030E8232E62
:10068000520C57FE02C05F2440268894441C551C1F
:1006900082B78F708930E1F782B78F708A30E1F7C7
:1006A000879B04C080E4282A80E8580E57FE02C0C9
:1006B0005F2440268894441C551C82B78F70893073
:1006C000E1F782B78F708A30E1F7879B04C080E240
:1006D000282A80E8580E57FE02C05F2440268894DE
:1006E000441C551C82B78F708930E1F782B78F7038
:1006F0008A30E1F7879B19C080E1282A80E8580EEC
:10070000332405C0879903C082B7382E04C082B74E
:100710008F708930B9F7332019F082B7831982BFFF
:1007200082B78F708A30E1F714C0332405C0879BED
:1007300003C082B7382E04C082B78F708930B9F7F2
:10074000332019F082B7831982BF82B78F708A3045
:10075000E1F757FE02C05F2440268894441C551CD4
:1007600082B78F708930E1F782B78F708A30E1F7F6
:10077000879B04C088E0282A80E8580E57FE02C0F4
:100780005F2440268894441C551C82B78F708930A2
:10079000E1F782B78F708A30E1F7879B04C084E06D
:1007A000282A80E8580E57FE02C05F24402688940D
:1007B000441C551C82B78F708930E1F782B78F7067
:1007C0008A30E1F7879B04C082E0282A80E8580E2F
:1007D00057FE02C05F2440268894441C551C82B7F3
:1007E0008F708930E1F782B78F708A30E1F7879B8D
:1007F0001BC081E0282A80E8580E332405C0879961
:1008000003C082B7382E04C082B78F708930B9F721
:10081000332019F082B7831982BF82B78F708A3074
:10082000E1F7879B17C030C0332405C0879B03C006
:1008300082B7382E04C082B78F708930B9F7332061
:1008400019F082B7831982BF82B78F708A30E1F7BF
:10085000879B1AC057FE02C05F2440268894441C20
:10086000551CE0916003F091610320828091600348
:1008700090916103019690936103809360032F5FD1
:10088000203209F0F0CE15C057FE02C05F2440268A
:100890008894441C551CE0916003F0916103208210
:1008A000809160039091610301969093610380931E
:1008B0006003222482B78F708930E1F782B78F708E
:1008C0008A30E1F7879B02C020E8222E82B78F7022
:1008D0008930E1F782B78F708A30E1F7879B02C0D9
:1008E00020E4222A82B78F708930E1F782B78F70B7
:1008F0008A30E1F7879B02C080E2282A82B78F7096
:100900008930E1F782B78F708A30E1F7879B02C0A8
:1009100020E1222A82B78F708930E1F782B78F7089
:100920008A30E1F7879B02C088E0282A82B78F705F
:100930008930E1F782B78F708A30E1F7879B02C078
:1009400024E0222A83E3581631F42EE6421619F4E5
:1009500082E0282A02C021E0222AE0916003F0917F
:1009600061032082809160039091610301969093CE
:100970006103809360038A1B81508C938091600394
:1009800090916103805690408F5C92400CF4C4CDEE
:10099000C4DCBECDE2DC882309F024CDD092610313
:1009A000C092600312BE80B38078382E80936000BE
:1009B000909261038092600313C020B320782817BF
:1009C000E1F382B780838091600390916103019687
:1009D0009093610380936003322EBFDC882351F42F
:1009E000E0916003F091610383E0EF35F80711F0C7
:1009F000832DE3CFC0E6D0E002C0899179DC8091FD
:100A0000600390916103C817D907B8F3BEDBC2CF6A
:100A1000FF920F931F932F933F934F935F93EF9307
:100A2000FF9355273FEF062FFC0112B72DE0120F61
:100A3000879905C0112712BF3A95A9F74EC022B772
:100A40001217B1F74EE0039501C041912AE005C0AD
:100A500000C0000000C000C000C047FD03C000008F
:100A600040D003C046D00000000013E01A95F1F713
:100A7000273059F00000223071F00000440F2A9511
:100A800039F70A9571F00000E0CF00C000C000C047
:100A900040582A95DFCF40582A95013009F4442761
:100AA000D9CF14E01A95F1F70000C09A1DE11A950C
:100AB000F1F7879B01C0506819E21A95F1F700C061
:100AC00087995064852FFF91EF915F914F913F91EE
:100AD0002F911F910F91FF90089582E0F4CF81E054
:100AE000F2CFC09815E11A951030E9F7879909C03F
:100AF0000895C09A15E11A951030E9F7879B01C057
:0A0B000008951F9190CFF894FFCFE5
:00000001FF
