:1000000099C0A8C0A7C0A6C0A5C0A4C0A3C0A2C0D4
:10001000A1C0A0C09FC09EC09DC09CC09BC09AC0F4
:1000200099C098C097C00D0A0D0A2D2D2D2D2D2D8C
:100030002D2D2D0D0A56414E206D6F6E696E6F721B
:10004000287265763229206D656E753A0D0A642036
:100050002D2064756D702056414E206275730D0A17
:1000600032202D2073656E6420277377697463686E
:1000700020746F20696E7465726E616C2043442732
:1000800020636D640D0A33202D2073656E64202774
:1000900073776974636820746F20726164696F2775
:1000A00020636D640D0A34202D2073656E64202753
:1000B00073776974636820746F2063642063686178
:1000C0006E6765722720636D640D0A6D202D206DAB
:1000D0006F6E69746F72206C696E652077697468E1
:1000E0002074696D65720D0A70202D2055534152A0
:1000F0005420706572666F726D616E636520746501
:100100007374202877696C6C20666C6F6F6420773D
:10011000697468206368617273290D0A72202D204A
:100120007265736574206465766963650D0A0D0AEE
:100130003E20000011241FBECFE5D4E0DEBFCDBFBE
:1001400013E0A0E6B0E001C01D92A436B107E1F7CC
:1001500033D1DEC455CF20EA3FE004C0F901319726
:10016000F1F701970097D1F7089586E880BD599A75
:100170001092610310926000B99AC1989A9810BCCD
:1001800081E089B988E18AB90895382F2091610307
:10019000422F50E083B390E08470907084179507ED
:1001A000C9F784E02827209361035D9BFECF3CB90B
:1001B00008955F9BFECF2CB18091600092E089276B
:1001C00080936000882311F0C19A01C0C198822FEA
:1001D00008958DE0DADF8AE0D8DF08958BB1881FBB
:1001E0008827881F0895837085BB089584B3836032
:1001F00084BB83E085BB8CE291E020EA3FE0F9011B
:100200003197F1F70197D9F715BA089555245A9403
:100210008EEF482E089550948EEF48260895FC01E5
:10022000DA0155245A949EEF492E4FE03DE914C05F
:100230009081242D852D0AC097FD805887FF02C02C
:10024000842723278894441C551C990F9923A1F7D0
:10025000422E582E31966150662351F7952D909578
:10026000592E8EEF48269C9311964C92089512BEFB
:1002700082E083BF089582B7089582BF089512BEB9
:1002800008951DBC1CBC81E08EBD08952CB53DB504
:10029000C901089581E087BB11BA089515BA8CE7AA
:1002A00082BB8EE388BB0895882311F0C09A08951D
:1002B000C09808950F931F93162F042F882349F099
:1002C00064DF112331F0812F60DF002311F0802FD4
:1002D0005CDF1F910F9108950F931F93162F042F2A
:1002E000882351F052DF112339F0812F4EDF002394
:1002F00019F0802F4ADF6DDF1F910F910895FF9253
:100300000F931F93162F042FF22E3FDF80E26DE232
:1003100040E2D0DF812F602F4F2DCCDF5ADF1F91BD
:100320000F91FF9008958F708A3010F4805D0895CA
:10033000895A08951F93182F82958F708A3010F470
:10034000805D01C0895A21DF812F8F708A3010F4BF
:10035000805D01C0895A19DF1F9108951F93CF93C3
:10036000DF93C1E6D0E00FC019910AC0809162030B
:1003700090916303C817D90729F08991DBDF1150E9
:100380001123A1F726DF8091620390916303C817C0
:10039000D90751F7DF91CF911F9108955F9903C05D
:1003A00080E090E0089505DF90E0823709F091E069
:1003B00081E09827892F08956F927F928F929F9264
:1003C000AF92BF92CF92DF92EF92FF920F931F9363
:1003D000CF93DF93B2E07B2EA1E6CA2EA0E0DA2E07
:1003E000FFE0FF2E0DE946010894811C911CEDE809
:1003F000EE2E7CE4B72E62E1A62E12BE73BE81E023
:1004000087BB11BAF3DE15BA8CE782BB8EE388BBDB
:10041000ACDE53E0652EC6E2D0E001C0B6DEFE01E0
:10042000219684918823D1F7C4DE182FAEDED1DE69
:10043000143609F470C01D3609F4B1C2123379F4D0
:10044000E0926100B0926200A0926300709264003A
:1004500089EC8093650080E68093660020C01333AA
:1004600071F4E0926100B0926200A092630021E01A
:100470002093640088EE809365002EE20EC0143352
:1004800039F5E0926100B0926200A0926300609240
:10049000640086ED809365002AE52093660081E67E
:1004A00090E066E0BAD287FD02C021E401C02DE2EF
:1004B00090E086FD02C061E401C06DE28F70907033
:1004C000892B11F443E501C045E4822F05DFA3CF5A
:1004D0001037E9F410E0812F8F5957DE812F8E59A4
:1004E00054DE812F8D5951DE812F8C594EDE812FA4
:1004F0008B594BDE812F8A5948DE812F895945DE81
:10050000812F885942DE65DE1F5F1F70E4CF1237EE
:1005100009F473CF80CFC09A12BED0926303C09209
:1005200062033CDF882311F019DF75CF12BE55241A
:100530005A944EEF442E80E003C08F3F09F082B7FB
:100540008799FBCF12BE863060F382B78F708930F7
:10055000E1F782B78F708A30E1F78799E2CF82B7EF
:100560008F708930E1F782B78F708A30E1F7879911
:10057000D8CF82B78F708930E1F782B78F708A3019
:10058000E1F78799CECF82B78F708930E1F782B7D4
:100590008F708A30E1F78799C4CF332405C0879BD9
:1005A00003C082B7382E04C082B78F708930B9F784
:1005B000332019F082B7831982BF82B78F708A30D7
:1005C000E1F7879BAECF82B78F708930E1F782B7B2
:1005D0008F708A30E1F7879BA4CF82B78F70893004
:1005E000E1F782B78F708A30E1F7879B9ACF82B7A5
:1005F0008F708930E1F782B78F708A30E1F7879B7F
:1006000090CF332405C0879903C082B7382E04C029
:1006100082B78F708930B9F7332019F082B7831908
:1006200082BF82B78F708A30E1F787997ACF3324FF
:1006300005C0879B03C082B7382E04C082B78F7075
:100640008930B9F7332019F082B7831982BF82B796
:100650008F708A30E1F7879B64CFA0916203B091DD
:1006600063031196B0936303A0936203119720E094
:10067000222482B78F708930E1F782B78F708A3079
:10068000E1F7879B03C030E8232E520C57FE02C0CF
:100690005F2440268894441C551C82B78F70893093
:1006A000E1F782B78F708A30E1F7879B04C080E45E
:1006B000282A80E8580E57FE02C05F2440268894FE
:1006C000441C551C82B78F708930E1F782B78F7058
:1006D0008A30E1F7879B04C080E2282A80E8580E20
:1006E00057FE02C05F2440268894441C551C82B7E4
:1006F0008F708930E1F782B78F708A30E1F7879B7E
:1007000019C080E1282A80E8580E332405C0879953
:1007100003C082B7382E04C082B78F708930B9F712
:10072000332019F082B7831982BF82B78F708A3065
:10073000E1F714C0332405C0879B03C082B7382E6D
:1007400004C082B78F708930B9F7332019F082B7AF
:10075000831982BF82B78F708A30E1F757FE02C0DB
:100760005F2440268894441C551C82B78F708930C2
:10077000E1F782B78F708A30E1F7879B04C088E089
:10078000282A80E8580E57FE02C05F24402688942D
:10079000441C551C82B78F708930E1F782B78F7087
:1007A0008A30E1F7879B04C084E0282A80E8580E4D
:1007B00057FE02C05F2440268894441C551C82B713
:1007C0008F708930E1F782B78F708A30E1F7879BAD
:1007D00004C082E0282A80E8580E57FE02C05F2439
:1007E00040268894441C551C82B78F708930E1F7ED
:1007F00082B78F708A30E1F7879B1BC081E0282A7F
:1008000080E8580E332405C0879903C082B7382E7C
:1008100004C082B78F708930B9F7332019F082B7DE
:10082000831982BF82B78F708A30E1F7879B17C028
:1008300030C0332405C0879B03C082B7382E04C064
:1008400082B78F708930B9F7332019F082B78319D6
:1008500082BF82B78F708A30E1F7879B1AC057FE3C
:1008600002C05F2440268894441C551CE09162031A
:10087000F09163032082809162039091630301965B
:1008800090936303809362032F5F203209F0F0CED0
:1008900015C057FE02C05F2440268894441C551C96
:1008A000E0916203F0916303208280916203909152
:1008B000630301969093630380936203222482B7BB
:1008C0008F708930E1F782B78F708A30E1F7879BAC
:1008D00002C020E8222E82B78F708930E1F782B7FC
:1008E0008F708A30E1F7879B02C020E4222A82B70A
:1008F0008F708930E1F782B78F708A30E1F7879B7C
:1009000002C080E2282A82B78F708930E1F782B76F
:100910008F708A30E1F7879B02C020E1222A82B7DC
:100920008F708930E1F782B78F708A30E1F7879B4B
:1009300002C088E0282A82B78F708930E1F782B739
:100940008F708A30E1F7879B02C024E0222A83E37C
:10095000581631F42EE6421619F482E0282A02C015
:1009600021E0222AE0916203F091630320828091CA
:1009700062039091630301969093630380936203F3
:100980008A1B81508C9380916203909163038156FE
:1009900090408F5C92400CF4C4CDE0DCBECDFEDC18
:1009A000882309F038CDD0926303C092620312BE4F
:1009B00080B38078382E8093610090926303809298
:1009C000620313C020B320782817E1F382B7808335
:1009D00080916203909163030196909363038093E7
:1009E0006203322EDBDC882351F4E0916203F09144
:1009F000630383E0E036F80711F0832DE3CFC1E60F
:100A0000D0E002C0899196DC8091620390916303EB
:100A1000C817D907B8F3DDDBC2CFFF920F931F933E
:100A20002F933F934F935F93EF93FF9355273FEFA0
:100A3000062FFC0112B72DE0120F879905C0112770
:100A400012BF3A95A9F74EC022B71217B1F74EE080
:100A5000039501C041912AE005C000C0000000C01C
:100A600000C000C047FD03C0000040D003C046D016
:100A70000000000013E01A95F1F7273059F000004C
:100A8000223071F00000440F2A9539F70A9571F071
:100A90000000E0CF00C000C000C040582A95DFCF62
:100AA00040582A95013009F44427D9CF14E01A950B
:100AB000F1F70000C09A1DE11A95F1F7879B01C07C
:100AC000506819E21A95F1F700C087995064852F94
:100AD000FF91EF915F914F913F912F911F910F9156
:100AE000FF90089582E0F4CF81E0F2CFC09815E145
:100AF0001A951030E9F7879909C00895C09A15E151
:100B00001A951030E9F7879B01C008951F9190CF87
:040B1000F894FFCF87
:00000001FF
